:107000000C9450380C946D380C946D380C946D3889
:107010000C946D380C946D380C946D380C946D385C
:107020000C946D380C946D380C946D380C946D384C
:107030000C946D380C946D380C946D380C946D383C
:107040000C946D380C946D380C946D380C946D382C
:107050000C946D380C946D380C946D380C946D381C
:107060000C946D380C946D38000800000008000086
:1070700000080000000800000008000000080000F0
:10708000000800000008000004B6E704B6D304B608
:10709000C704B6C302900703AC8103AC8002900022
:1070A00011241FBECFEFD8E0DEBFCDBF11E0A0E0BE
:1070B000B1E0ECE2FEE702C005900D92A231B1070B
:1070C000D9F721E0A2E1B1E001C01D92A239B207D7
:1070D000E1F70E943F3B0C94143F0C940038A0E071
:1070E000FB01EA0FF11D208130E0B8E0F901E8274B
:1070F000F92796958795E0FF04C0E8E08E27E4E83D
:107100009E2736952795B15089F7AF5F2A2F30E03B
:107110002417350728F308958FEF9FEF08950C94F7
:107120006F380895AB01BC018FEF9FEF0C946F385F
:10713000CF93DF93CDB7DEB72F970FB6F894DEBFAE
:107140000FBECDBF1B821A8283E38C8387E08983C5
:10715000809100018D831E821F82CE0101960E94C4
:107160004D3C2F960FB6F894DEBF0FBECDBFDF911A
:10717000CF910895CF93DF93CDB7DEB72F970FB69A
:10718000F894DEBF0FBECDBF1B821A8295E19C83AF
:1071900097E09983909100019D831E8295E09F83E3
:1071A000888779876A875B874C87CE0101960E9422
:1071B0004D3C2F960FB6F894DEBF0FBECDBFDF91CA
:1071C000CF910895CF93DF93CDB7DEB72F970FB64A
:1071D000F894DEBF0FBECDBF1B821A8222E12C8342
:1071E00027E02983209100012D831E8225E02F8333
:1071F00023E0288799878A877B876C87CE01019651
:107200000E944D3C2F960FB6F894DEBF0FBECDBF47
:10721000DF91CF9108950E94483B0C94EE3B4F9232
:107220005F926F927F928F929F92AF92BF92CF9216
:10723000DF92EF92FF920F931F93CF93DF93CDB71F
:10724000DEB76E970FB6F894DEBF0FBECDBF0E94BB
:107250007F3B882311F011E011C00E94963B8A3ACF
:1072600019F40E94533BD9C18B3BA9F78AEA0E94CB
:107270009A3B0E944F3B8093000110E081E00E9406
:107280005E3B113009F05BC01B821A8282E08C8366
:107290001982809100018D831E821F838887CE0111
:1072A00001960E944D3C0EE0CE0140960E94F53BB7
:1072B0008130D1F789899A89892BB1F78B898330FD
:1072C00019F08C3061F0F0CF909100018C89981307
:1072D000EBCF80E00E945E3B0E94643BE5CF909143
:1072E00000018F899813E0CF80E00E949F3B998D29
:1072F0008913DACF83E00E949F3B9A8D8913D4CF04
:1073000085E00E949F3B9B8D8913CECF87E00E9432
:107310009F3B9C8D8913C8CF888D882381F01B8269
:107320001A820C8387E08983809100018D831E82FD
:107330001F831886CE0101960E944D3CB5CF1B825B
:107340001A828DE08C8387E08983809100018D8390
:107350001E8288E08F83188619861A8680E88B87BC
:107360001C861D861E8680EE8F87CE0101960E94A8
:107370004D3C00E010E099249394B12CC12CD12C09
:107380007601A2E38A2EB7E0AB2E81E1782E96E05B
:10739000692E24E1522E34E0432ECE0140960E9405
:1073A000F53B8130D1F789899A89892BB1F78B898F
:1073B0008F3059F020F4883009F4C5C0EECF803109
:1073C00099F1833109F479C0E8CF8E899CEF980F49
:1073D0009330C0F49F89C88CD12CE12CF12C76011C
:1073E000DD24CC24F92A9A8DC92A998DD92A843092
:1073F00019F08B8D811106C080EEC816D104E1040E
:10740000F10418F00E949838C8CF1B821A828C822F
:10741000A982809100018D831E821F82CE01019678
:107420000E944D3CB12CB9CF8E89883049F48B2D08
:1074300090E08937910524F4DE01579680E00CC076
:10744000C701B601E7E0660F771F881F991FEA950D
:10745000D1F70E94E238A1CFE82FEB0D883039F048
:107460009D91F0E0EE5EFE4F90838F5FF5CFBE2ED4
:10747000E7FF93CF60E870E082E191E00E949238EC
:107480001B821A827C82A982209100012D831E8298
:107490006F8298878987D701C60167E0880F991F97
:1074A000AA1FBB1F6A95D1F7BA87AB879C878D87C8
:1074B000CE0101960E944D3C70CF8E89843021F020
:1074C000B701A60183E015C02F89888D90E0A0E068
:1074D000B0E0DC0199278827B22B2A8D822B298DD9
:1074E000922BC816D906EA06FB0631F0B701A601B1
:1074F00082E00E94BA381EC0992019F08BEB0E94DE
:107500009A3B62E171E0C6010E94AB3B1B821A828A
:107510005C82A982809100018D831E824F82F88651
:10752000E986DA86CB86CE0101960E944D3C0F5F3C
:107530001F4F912C003E110508F42FCF31E3C32ECD
:1075400047E0D42E0FC08E898150833008F025CFBC
:10755000909100018F89981320CF5AC089899A8908
:10756000892B39F0CE0140960E94F53B8130D1F74E
:10757000F5CF8B898631B1F78E89823099F70E94D9
:107580008C387C0100E010E0C8010E94EB3B89834D
:1075900041E050E0BE016F5F7F4FC7010E948F380E
:1075A0007C010F5F1F4F011580E7180769F7C701BE
:1075B0000E9491384F8950E0342F2227242B352BFD
:1075C0002817390799F01B821A82CC82D9828091C0
:1075D00000018D831E821F82CE0101960E944D3CC8
:1075E00080E00E945E3B0E94643BBCCF8AEA0E941E
:1075F0009A3B1B821A8280E38C8387E08983809187
:1076000000018D831E821F82CE0101960E944D3C97
:1076100080E00E945E3B0E946C3B6E960FB6F89431
:10762000DEBF0FBECDBFDF91CF911F910F91FF90B5
:10763000EF90DF90CF90BF90AF909F908F907F9012
:107640006F905F904F900895F8948EE284B985E032
:1076500085B98FE287B980E188B91AB88BEF8BB909
:1076600084B7877F84BFE0E6F0E08081877F8083F6
:10767000089586B18295817091E0892708950E94CE
:10768000243B0E940B390E940F3980E090E008955E
:1076900085B7982F916095BF826085BF089581E07E
:1076A00090E00C94FE3E1CBC1DBC85B7982F9160E9
:1076B00095BF8D7F85BFE0E0F0E00994811102C0A5
:1076C00045980895459A089585B7982F916095BF7C
:1076D0008D7F85BF0000FECF85B7982F916095BF45
:1076E0008D7F85BF28E088E190E00FB6F894A895DB
:1076F000809360000FBE209360000000FECFCF9308
:10770000DF930E94393BD82FC0E08FE39CE90197BB
:10771000F1F700C000000E94393BD813F5CFCF5FCE
:10772000C33098F38D2FDF91CF91089580E090E0E2
:107730000C94FE3E682F80E090E00C94063F803170
:1077400040F4EFE0F0E0E81BF109EF5FFE4F8081CD
:10775000089580E008951F93CF93DF939695982F17
:10776000882797958795CFB7F894F999FECF23E0AE
:10777000FC0120935700E89507B600FCFDCF20E000
:1077800030E0D1E0DB01A20FB31F1C91F901E80F3B
:10779000F91F11964C9150E0542F4427410F511D71
:1077A0000A01D0935700E89511242E5F3F4F2038EF
:1077B000310541F725E0FC0120935700E89507B615
:1077C00000FCFDCF81E180935700E895CFBFDF91AA
:1077D000CF911F910895FC018491089584E00E9447
:1077E0000C3D88E690E70C947D3E0F931F93CF935A
:1077F000DF93CDB7DEB72E970FB6F894DEBF0FBE7E
:10780000CDBF8C010097E9F10E947D3D8823C9F12D
:10781000CE0101960E94843D882399F149815A81C5
:107820006B817C81CB019170F801928381835383BA
:107830004483DB01CA0129E1B695A7959795879501
:107840002A95D1F7817085833AE1769567955795AA
:1078500047953A95D1F7477040832E8126832111B1
:1078600002C081E00FC0FE01379680E090E08217F1
:10787000C0F73191D801A80FB91F17963C93019614
:10788000F6CF80E02E960FB6F894DEBF0FBECDBFC8
:10789000DF91CF911F910F910895FF920F931F9346
:1078A000CF93DF93CDB7DEB72E970FB6F894DEBF38
:1078B0000FBECDBFFC01009709F452C0F68088E0EE
:1078C0008F1508F44DC0408150E060E070E0AAE1FF
:1078D000440F551F661F771FAA95D1F70581112701
:1078E00007FD1095212F312FB9E1000F111F221F25
:1078F000331FBA95D1F7402B512B622B732B848108
:10790000482B0181128120E030E0980111270027E7
:10791000402B512B622B732B8381582B49835A8325
:107920006B837C838D818E7F82608D83FE82F110DC
:1079300005C0CE0101960E94263E13C0AE01495FEC
:107940005F4F80E090E09F01280F391FD901179603
:107950002C91DA012D93AD0101968F15A0F3E9CF9B
:1079600080E02E960FB6F894DEBF0FBECDBFDF913C
:10797000CF911F910F91FF9008951F93CF93DF93A5
:107980001F92CDB7DEB7182F2A9882E069830E9434
:10799000F83E812F0E94F83E6981862F0E94F83EB2
:1079A0002A9A0F90DF91CF911F910895CF93C82FFE
:1079B0002A9883E00E94F83E8C2F0E94F83E8FEFB9
:1079C0000E94F83E2A9ACF9108951F93CF93DF9398
:1079D00000D0CDB7DEB7182F2A9885E04A83698397
:1079E0000E94F83E812F0E94F83E6981862F0E94F6
:1079F000F83E4A81842F0E94F83E2A9A0F900F90F9
:107A0000DF91CF911F9108952A980E94F83E8FEF41
:107A10000E94F83E2A9A0895EF92FF920F931F93C7
:107A2000CF93DF93082F883010F080E05FC02A9A50
:107A3000229A2D982B982C98259A239A24980E9464
:107A4000F33E2A9880EC0E94F83E8FE99FE0019770
:107A5000F1F700C000002A9A8FE39CE90197F1F743
:107A600000C000002A9882E00E94F83E88E20E944E
:107A7000F83E10E0E801CC0FDD1FC00FD11FE12C54
:107A8000F12CC857DF48FE01EE0DFF1D84910E94C6
:107A9000F83E9FEFE91AF90A83E0E816F10499F736
:107AA00083E00E94F83E2A9A60E08DE00E94BD3C8F
:107AB00052985A9A60E08CE00E94BD3C89E20E9494
:107AC000D63CD82FF801EE0FFF1FE00FF11FE7574C
:107AD000FF48C49160E08FE00E94BD3CDC13A5CF5D
:107AE0008EE00E94D63C807ED9F781E0DF91CF9175
:107AF0001F910F91FF90EF90089589B182FB882725
:107B000080F991E089270895DF92EF92FF920F9319
:107B10001F93CF93DF93EC0180EB0E94043DF82E7E
:107B20008074E82EF6FC04C0F7FE36C084E901C07C
:107B300080E92A980E94F83ECE010E94D53D9C81A2
:107B400080FB91F99C838FEF0E94F83EF3FA222785
:107B500020F99C8120FB90F99C838F70D82E8D8317
:107B600000E010E00D1550F48FEF0E94F83EFE018A
:107B7000E00FF11F86830F5F1F4FF4CF2A9A40E07A
:107B8000EE2011F061E001C062E08CE20E94E53C71
:107B90008F2D8770E82EE3948E2DDF91CF911F916A
:107BA0000F91FF90EF90DF9008951F93CF93DF9395
:107BB000EC018FEF0E94F83E182F8FEF0E94F83EE5
:107BC000982F212F30E0887093FF21C08FEF8EBD5A
:107BD00055E0220F331F5A95E1F73B832A830DB4FA
:107BE00007FEFDCF8EB589838FEF8EBD892F837001
:107BF0002A81822B9695969596959C71892B8A83DE
:107C00000DB407FEFDCF8EB5888381E01BC04FEF1A
:107C10004EBD1B821A8243E0220F331F4A95E1F7C3
:107C2000398328830DB407FEFDCF2EB52FEF2EBD6F
:107C30009295969597702881292B28830DB407FE7D
:107C4000FDCF9EB5DF91CF911F910895EF92FF92E6
:107C50000F931F93CF93DF93EC0180EA0E94043DC2
:107C600082FF07C084FF07C086FD3FC094E0F92E65
:107C700004C0F12C02C082E0F82E2A988F2D806477
:107C80000E94F83E6C8166956170CE010E94B83EFC
:107C9000ED808E2D8F70E82E8C8180FF05C08E2D9B
:107CA00080640E94F83E10C08E2D0E94F83E00E0D5
:107CB00010E00E1548F4FE01E00FF11F86810E94CE
:107CC000F83E0F5F1F4FF5CF2A9A85E08A95F1F7AE
:107CD00000002A98F11002C0FF24F3948F2D8068D1
:107CE0000E94F83E2A9A8F2D01C080E0DF91CF914B
:107CF0001F910F91FF90EF9008950F931F93CF93D3
:107D0000DF93EC0140E860EE8FE00E94E53C8EE0FE
:107D10000E94D63C807E8038D1F764E080E60E94E5
:107D2000BD3C60E080E70E94BD3C10E02A9882E004
:107D30000E94F83E812F0E94F83E00E0103211F4BC
:107D4000083048F42196FE01319784910E94F83E54
:107D50000F5F0C3099F72A9A105F103339F740E023
:107D600060EE8FE0DF91CF911F910F910C94E53C75
:107D7000CF93DF93EC016623E1F08A819B8135E0AC
:107D8000969587953A95E1F78EBD2A8138E0239F35
:107D9000C0011124807E88602370822B0DB407FE01
:107DA000FDCF9EB50E94F83E89810E94F83E8881F1
:107DB00016C08881998123E0969587952A95E1F7E9
:107DC0008EBD88818295880F807E0DB407FEFDCF21
:107DD0009EB50E94F83E80E00E94F83E80E0DF9170
:107DE000CF910C94F83E81E58CBD81E08DBD089566
:107DF0008EBD0DB407FEFDCF8EB50895F999FECF67
:107E000092BD81BDF89A992780B50895262FF999DA
:107E1000FECF1FBA92BD81BD20BD0FB6F894FA9A6D
:0C7E2000F99A0FBE01960895F894FFCF68
:107E2C00FE00000000000000000000000000000048
:027E3C00010043
:040000030000700089
:00000001FF
