:107000000C9450380C946D380C946D380C946D3889
:107010000C946D380C946D380C946D380C946D385C
:107020000C946D380C946D380C946D380C946D384C
:107030000C946D380C946D380C946D380C946D383C
:107040000C946D380C946D380C946D380C946D382C
:107050000C946D380C946D380C946D380C946D381C
:107060000C946D380C946D38000800000008000086
:1070700000080000000800000008000000080000F0
:10708000000800000008000004B6E704B6D304B608
:10709000C704B6C302900703AC8103AC8002900022
:1070A00011241FBECFEFD8E0DEBFCDBF11E0A0E0BE
:1070B000B1E0E4E6FEE702C005900D92A231B1070F
:1070C000D9F721E0A2E1B1E001C01D92A239B207D7
:1070D000E1F70E945B3B0C94303F0C940038A0E039
:1070E000FB01EA0FF11D20819227E8E09C01220FAD
:1070F000331F97FF06C0C901F1E28F27F0E19F27F8
:1071000001C0C901E15091F7AF5F2A2F30E0241789
:10711000350730F308958FEF9FEF08950C946F3883
:107120000895AB01BC018FEF9FEF0C946F38CF93A4
:10713000DF93CDB7DEB72F970FB6F894DEBF0FBE43
:10714000CDBF1B821A8283E38C8387E08983809181
:1071500000018D831E821F82CE0101960E94693C30
:107160002F960FB6F894DEBF0FBECDBFDF91CF9143
:107170000895CF93DF93CDB7DEB72F970FB6F8946E
:10718000DEBF0FBECDBF1B821A8295E19C8397E0C4
:107190009983909100019D831E8295E09F8388874B
:1071A00079876A875B874C87CE0101960E94693C8C
:1071B0002F960FB6F894DEBF0FBECDBFDF91CF91F3
:1071C0000895CF93DF93CDB7DEB72F970FB6F8941E
:1071D000DEBF0FBECDBF1B821A8281E38C8387E0A6
:1071E0008983809100018D831E821F82CE010196CA
:1071F0000E94693C2F960FB6F894DEBF0FBECDBF3C
:10720000DF91CF910895CF93DF93CDB7DEB72F975E
:107210000FB6F894DEBF0FBECDBF1B821A8222E1EB
:107220002C8327E02983209100012D831E8225E0F5
:107230002F8323E0288799878A877B876C87CE01F5
:1072400001960E94693C2F960FB6F894DEBF0FBEE0
:10725000CDBFDF91CF9108950E94643B0C940A3C0E
:107260002F923F924F925F926F927F928F929F9256
:10727000AF92BF92CF92DF92EF92FF920F931F9344
:10728000CF93DF93CDB7DEB7A2970FB6F894DEBFEA
:107290000FBECDBF0E949B3B882311F011E011C0AF
:1072A0000E94B23B8A3A19F40E946F3BD0C18B3BDB
:1072B000A9F78AEA0E94B63B0E946B3B80930001CB
:1072C00010E081E00E947A3B113009F05CC01B8223
:1072D0001A8282E08C831982809100018D831E8244
:1072E0001F838887CE0101960E94693C0EE0F02E34
:1072F00007E0CE0140960E94113C8130D1F7898988
:107300009A89892BB1F78B89833019F08C3061F021
:10731000F0CF909100018C899813EBCF80E00E9410
:107320007A3B0E94803BE5CF909100018F899813B2
:10733000E0CF8FE00E94BB3B998D8913DACF8CE0C0
:107340000E94BB3B9A8D8913D4CF8AE00E94BB3B3D
:107350009B8D8913CECF88E00E94BB3B9C8D891307
:10736000C8CF888D882379F01B821A82FC8209831A
:10737000809100018D831E821F831886CE010196A5
:107380000E94693CB6CF1B821A828DE08C8387E015
:107390008983809100018D831E8288E08F83188607
:1073A00019861A8680E88B871C861D861E8680EECD
:1073B0008F87CE0101960E94693C33243394912C2F
:1073C000412C512C3201C12CD12C7601B7E08B2EEF
:1073D00012E3212ECE0140960E94113C8130D1F75C
:1073E00089899A89892BB1F78B898031E9F130F449
:1073F000883009F41DC18F3041F0ECCF833109F49E
:107400007FC0863109F4BCC0E5CF8E899CEF980F10
:107410009330C0F49F89C88CD12CE12CF12C7601DB
:10742000DD24CC24F92A9A8DC92A998DD92A843051
:1074300019F08B8D811106C020EEC216D104E10433
:10744000F10418F00E949738C5CF1B821A822C8253
:107450008982809100018D831E821F82CE01019658
:107460000E94693C912CB6CF8E89883049F4892DD1
:1074700090E08937910524F4DE01579680E00CC036
:10748000C701B601F7E0660F771F881F991FFA95AD
:10749000D1F70E9403399ECFE82FE90D883039F0EB
:1074A0009D91F0E0EE5EFE4F90838F5FF5CF38E068
:1074B000930E97FE8FCF60E870E082E191E00E942A
:1074C00091381B821A8241E14C838982209100010C
:1074D0002D831E8256E05F8398878987D701C60176
:1074E000E7E0880F991FAA1FBB1FEA95D1F7BA875B
:1074F000AB879C878D87CE0101960E94693C6ACF3D
:107500008E89843021F0B701A60183E015C08F89F0
:10751000488C512C612C712C320155244424782A3A
:107520008A8D482A898D582AC414D504E604F704A4
:1075300031F0B701A60182E00E94B9384BCF332069
:1075400019F08BEB0E94B63B62E171E0C6010E942C
:10755000C73B1B821A8284E18C838982809100015F
:107560008D831E8294E09F83F886E986DA86CB8637
:10757000CE0101960E94693C26013701312C2ACFA9
:107580008E89823019F00E94E13824CF0E948B3816
:107590005C01A30192012F5F3F4F4F4F5F4F67E0A8
:1075A000220F331F441F551F6A95D1F72F8F38A321
:1075B00049A35AA300E010E0C801A0E0B0E02F8D7D
:1075C00038A149A15AA182179307A407B50780F4EF
:1075D000C8010E94073C898341E050E0BE016F5F13
:1075E0007F4FC5010E948E385C010F5F1F4FE4CFB3
:1075F000C5010E9490382F8930E0322F2227488D14
:10760000242B2817390709F0BECF8AEA0E94B63B1F
:107610001B821A8280E38C8387E08983809100013A
:107620008D831E821F82CE0101960E94693C0AC092
:107630008E898150833008F0CDCE909100018F89E2
:107640009813C8CE80E00E947A3B0E94883BA296A5
:107650000FB6F894DEBF0FBECDBFDF91CF911F9163
:107660000F91FF90EF90DF90CF90BF90AF909F90E1
:107670008F907F906F905F904F903F902F900895E4
:10768000F8948EE284B985E085B98FE287B980E10C
:1076900088B91AB88BEF8BB984B7877F84BFE0E6CF
:1076A000F0E08081877F8083089586B18295817024
:1076B00091E0892708950E94403B0E942C390E9446
:1076C000303980E090E0089585B7982F916095BF9C
:1076D000826085BF089581E090E00C941A3F1CBC45
:1076E0001DBC85B7982F916095BF8D7F85BFE0E069
:1076F000F0E00994811102C045980895459A0895D3
:1077000085B7982F916095BF8D7F85BF0000FECF14
:1077100085B7982F916095BF8D7F85BF28E088E160
:1077200090E00FB6F894A895809360000FBE209368
:1077300060000000FECFCF93DF930E94553BD82F0F
:10774000C0E08FE39CE90197F1F700C000000E94C0
:10775000553BD813F5CFCF5FC33098F38D2FDF9112
:10776000CF91089580E090E00C941A3F682F80E05C
:1077700090E00C94223F803140F4EFE0F0E0E81B11
:10778000F109EF5FFE4F8081089580E008951F9317
:10779000CF93DF939695982F882797958795CFB7A6
:1077A000F894F999FECF23E0FC0120935700E89567
:1077B00007B600FCFDCF20E030E0D1E0DB01A20FF6
:1077C000B31F1C91F901E80FF91F11964C9150E07D
:1077D000542F4427410F511D0A01D0935700E895BB
:1077E00011242E5F3F4F2038310541F725E0FC0181
:1077F00020935700E89507B600FCFDCF81E1809308
:107800005700E895CFBFDF91CF911F910895FC01FC
:107810008491089584E00E94283D88E690E70C94C6
:10782000993E0F931F93CF93DF93CDB7DEB72E977B
:107830000FB6F894DEBF0FBECDBF8C010097E9F103
:107840000E94993D8823C9F1CE0101960E94A03D76
:10785000882399F149815A816B817C81CB01917098
:10786000F8019283818353834483DB01CA0129E1B8
:10787000B695A795979587952A95D1F781708583B9
:107880003AE176956795579547953A95D1F74770C0
:1078900040832E812683211102C081E00FC0FE01AA
:1078A000379680E090E08217C0F73191D801A80F99
:1078B000B91F17963C930196F6CF80E02E960FB62F
:1078C000F894DEBF0FBECDBFDF91CF911F910F9116
:1078D0000895FF920F931F93CF93DF93CDB7DEB739
:1078E0002E970FB6F894DEBF0FBECDBFFC010097F8
:1078F00009F452C0F68088E08F1508F44DC040812D
:1079000050E060E070E0AAE1440F551F661F771F4A
:10791000AA95D1F70581112707FD1095212F312F49
:10792000B9E1000F111F221F331FBA95D1F7402B69
:10793000512B622B732B8481482B0181128120E013
:1079400030E0980111270027402B512B622B732B1D
:107950008381582B49835A836B837C838D818E7FEF
:1079600082608D83FE82F11005C0CE0101960E94D7
:10797000423E13C0AE01495F5F4F80E090E09F013F
:10798000280F391FD90117962C91DA012D93AD01DB
:1079900001968F15A0F3E9CF80E02E960FB6F894EC
:1079A000DEBF0FBECDBFDF91CF911F910F91FF9032
:1079B00008951F93CF93DF931F92CDB7DEB7182F93
:1079C0002A9882E069830E94143F812F0E94143F0D
:1079D0006981862F0E94143F2A9A0F90DF91CF91E0
:1079E0001F910895CF93C82F2A9883E00E94143FD7
:1079F0008C2F0E94143F8FEF0E94143F2A9ACF9140
:107A000008951F93CF93DF9300D0CDB7DEB7182F23
:107A10002A9885E04A8369830E94143F812F0E943F
:107A2000143F6981862F0E94143F4A81842F0E944F
:107A3000143F2A9A0F900F90DF91CF911F910895D4
:107A40002A980E94143F8FEF0E94143F2A9A0895AB
:107A5000EF92FF920F931F93CF93DF93082F8830FD
:107A600010F080E05FC02A9A229A2D982B982C98CB
:107A7000259A239A24980E940F3F2A9880EC0E940E
:107A8000143F8FE99FE00197F1F700C000002A9AA8
:107A90008FE39CE90197F1F700C000002A9882E08B
:107AA0000E94143F88E20E94143F10E0E801CC0FCE
:107AB000DD1FC00FD11FE12CF12CC857DF48FE019C
:107AC000EE0DFF1D84910E94143F9FEFE91AF90A01
:107AD00083E0E816F10499F783E00E94143F2A9AA4
:107AE00060E08DE00E94D93C52985A9A60E08CE0A8
:107AF0000E94D93C89E20E94F23CD82FF801EE0F97
:107B0000FF1FE00FF11FE757FF48C49160E08FE0CF
:107B10000E94D93CDC13A5CF8EE00E94F23C807E0F
:107B2000D9F781E0DF91CF911F910F91FF90EF90F6
:107B3000089589B182FB882780F991E0892708950B
:107B4000DF92EF92FF920F931F93CF93DF93EC019D
:107B500080EB0E94203DF82E8074E82EF6FC04C0D5
:107B6000F7FE36C084E901C080E92A980E94143FDC
:107B7000CE010E94F13D9C8180FB91F99C838FEFA7
:107B80000E94143FF3FA222720F99C8120FB90F9F0
:107B90009C838F70D82E8D8300E010E00D1550F47B
:107BA0008FEF0E94143FFE01E00FF11F86830F5FED
:107BB0001F4FF4CF2A9A40E0EE2011F061E001C09F
:107BC00062E08CE20E94013D8F2D8770E82EE394E5
:107BD0008E2DDF91CF911F910F91FF90EF90DF904D
:107BE00008951F93CF93DF93EC018FEF0E94143F12
:107BF000182F8FEF0E94143F982F212F30E08870AC
:107C000093FF21C08FEF8EBD55E0220F331F5A9591
:107C1000E1F73B832A830DB407FEFDCF8EB5898340
:107C20008FEF8EBD892F83702A81822B9695969532
:107C300096959C71892B8A830DB407FEFDCF8EB576
:107C4000888381E01BC04FEF4EBD1B821A8243E048
:107C5000220F331F4A95E1F7398328830DB407FEBD
:107C6000FDCF2EB52FEF2EBD92959695977028815A
:107C7000292B28830DB407FEFDCF9EB5DF91CF9150
:107C80001F910895EF92FF920F931F93CF93DF936D
:107C9000EC0180EA0E94203D82FF07C084FF07C0FC
:107CA00086FD3FC094E0F92E04C0F12C02C082E0B2
:107CB000F82E2A988F2D80640E94143F6C8166955F
:107CC0006170CE010E94D43EED808E2D8F70E82E23
:107CD0008C8180FF05C08E2D80640E94143F10C0EF
:107CE0008E2D0E94143F00E010E00E1548F4FE01B6
:107CF000E00FF11F86810E94143F0F5F1F4FF5CFE9
:107D00002A9A85E08A95F1F700002A98F11002C0BE
:107D1000FF24F3948F2D80680E94143F2A9A8F2DA0
:107D200001C080E0DF91CF911F910F91FF90EF9004
:107D300008950F931F93CF93DF93EC0140E860EE1B
:107D40008FE00E94013D8EE00E94F23C807E8038F0
:107D5000D1F764E080E60E94D93C60E080E70E94B1
:107D6000D93C10E02A9882E00E94143F812F0E94A3
:107D7000143F00E0103211F4083048F42196FE015F
:107D8000319784910E94143F0F5F0C3099F72A9A23
:107D9000105F103339F740E060EE8FE0DF91CF9154
:107DA0001F910F910C94013DCF93DF93EC0166235B
:107DB000E1F08A819B8135E0969587953A95E1F7C8
:107DC0008EBD2A8138E0239FC0011124807E886007
:107DD0002370822B0DB407FEFDCF9EB50E94143F89
:107DE00089810E94143F888116C08881998123E08F
:107DF000969587952A95E1F78EBD88818295880FA3
:107E0000807E0DB407FEFDCF9EB50E94143F80E03A
:107E10000E94143F80E0DF91CF910C94143F81E5E4
:107E20008CBD81E08DBD08958EBD0DB407FEFDCFE4
:107E30008EB50895F999FECF92BD81BDF89A992724
:107E400080B50895262FF999FECF1FBA92BD81BD46
:107E500020BD0FB6F894FA9AF99A0FBE01960895CC
:047E6000F894FFCFC4
:107E6400FE00000000000000000000000000000010
:027E7400FE000E
:040000030000700089
:00000001FF
