:107000000C9450380C946D380C946D380C946D3889
:107010000C946D380C946D380C946D380C946D385C
:107020000C946D380C946D380C946D380C946D384C
:107030000C946D380C946D380C946D380C946D383C
:107040000C946D380C946D380C946D380C946D382C
:107050000C946D380C946D380C946D380C946D381C
:107060000C946D380C946D38000800000008000086
:1070700000080000000800000008000000080000F0
:10708000000800000008000004B6E704B6D304B608
:10709000C704B6C302900703AC8103AC8002900022
:1070A00011241FBECFEFD8E0DEBFCDBF11E0A0E0BE
:1070B000B1E0EAE2FEE702C005900D92A231B1070D
:1070C000D9F721E0A2E1B1E001C01D92A239B207D7
:1070D000E1F70E943E3B0C94133F0C940038A0E073
:1070E000FB01EA0FF11D20819227E8E09C01220FAD
:1070F000331F97FF06C0C901F1E28F27F0E19F27F8
:1071000001C0C901E15091F7AF5F2A2F30E0241789
:10711000350730F308958FEF9FEF08950C946F3883
:107120000895AB01BC018FEF9FEF0C946F38CF93A4
:10713000DF93CDB7DEB72F970FB6F894DEBF0FBE43
:10714000CDBF1B821A8283E38C8387E08983809181
:1071500000018D831E821F82CE0101960E944C3C4D
:107160002F960FB6F894DEBF0FBECDBFDF91CF9143
:107170000895CF93DF93CDB7DEB72F970FB6F8946E
:10718000DEBF0FBECDBF1B821A8295E19C8397E0C4
:107190009983909100019D831E8295E09F8388874B
:1071A00079876A875B874C87CE0101960E944C3CA9
:1071B0002F960FB6F894DEBF0FBECDBFDF91CF91F3
:1071C0000895CF93DF93CDB7DEB72F970FB6F8941E
:1071D000DEBF0FBECDBF1B821A8222E12C8327E0C7
:1071E0002983209100012D831E8225E02F8323E037
:1071F000288799878A877B876C87CE0101960E94B2
:107200004C3C2F960FB6F894DEBF0FBECDBFDF917A
:10721000CF9108950E94473B0C94ED3B4F925F92B3
:107220006F927F928F929F92AF92BF92CF92DF9296
:10723000EF92FF920F931F93CF93DF93CDB7DEB7FB
:107240006E970FB6F894DEBF0FBECDBF0E947E3B97
:10725000882311F011E011C00E94953B8A3A19F47D
:107260000E94523BD9C18B3BA9F78AEA0E94993B05
:107270000E944E3B8093000110E081E00E945D3B44
:10728000113009F05BC01B821A8282E08C83198264
:10729000809100018D831E821F838887CE01019615
:1072A0000E944C3C0EE0CE0140960E94F43B81309F
:1072B000D1F789899A89892BB1F78B89833019F0A5
:1072C0008C3061F0F0CF909100018C899813EBCF56
:1072D00080E00E945D3B0E94633BE5CF90910001FE
:1072E0008F899813E0CF80E00E949E3B998D89138F
:1072F000DACF83E00E949E3B9A8D8913D4CF85E03C
:107300000E949E3B9B8D8913CECF87E00E949E3BBF
:107310009C8D8913C8CF888D882381F01B821A82A7
:107320000C8387E08983809100018D831E821F83F7
:107330001886CE0101960E944C3CB5CF1B821A8262
:107340008DE08C8387E08983809100018D831E828C
:1073500088E08F83188619861A8680E88B871C86BA
:107360001D861E8680EE8F87CE0101960E944C3CC2
:1073700000E010E099249394B12CC12CD12C76011B
:10738000B2E38B2E87E0A82E91E1792E26E0622EC3
:1073900034E1532E44E0442ECE0140960E94F43B4B
:1073A0008130D1F789899A89892BB1F78B898F3000
:1073B00059F020F4883009F4C5C0EECF803199F13E
:1073C000833109F479C0E8CF8E899CEF980F933010
:1073D000C0F49F89C88CD12CE12CF12C7601DD24DE
:1073E000CC24F92A9A8DC92A998DD92A843019F08A
:1073F0008B8D811106C080EEC816D104E104F10422
:1074000018F00E949738C8CF1B821A828C82A982FA
:10741000809100018D831E821F82CE0101960E9401
:107420004C3CB12CB9CF8E89883049F48B2D90E03B
:107430008937910524F4DE01579680E00CC0C7011E
:10744000B601F7E0660F771F881F991FFA95D1F7ED
:107450000E94E138A1CFE82FEB0D883039F09D91E3
:10746000F0E0EE5EFE4F90838F5FF5CFBE2EE7FF1C
:1074700093CF60E870E082E191E00E9491381B8236
:107480001A827C82A982209100012D831E826F8244
:1074900098878987D701C601E7E0880F991FAA1F3F
:1074A000BB1FEA95D1F7BA87AB879C878D87CE0142
:1074B00001960E944C3C70CF8E89843021F0B70138
:1074C000A60183E015C02F89888D90E0A0E0B0E090
:1074D000DC0199278827B22B2A8D822B298D922BAC
:1074E000C816D906EA06FB0631F0B701A60182E00C
:1074F0000E94B9381EC0992019F08BEB0E94993B6D
:1075000062E171E0C6010E94AA3B1B821A825C8282
:10751000A982809100018D831E824F82F886E986C0
:10752000DA86CB86CE0101960E944C3C0F5F1F4F3E
:10753000912C003E110508F42FCF51E3C52E67E0D2
:10754000D62E0FC08E898150833008F025CF9091C0
:1075500000018F89981320CF5AC089899A89892B75
:1075600039F0CE0140960E94F43B8130D1F7F5CF3F
:107570008B898631B1F78E89823099F70E948B38DA
:107580007C0100E010E0C8010E94EA3B898341E0F1
:1075900050E0BE016F5F7F4FC7010E948E387C01B3
:1075A0000F5F1F4F011580E7180769F7C7010E9499
:1075B00090382F8930E0322F2227488D242B28172E
:1075C000390799F01B821A82CC82D98280910001FE
:1075D0008D831E821F82CE0101960E944C3C80E06A
:1075E0000E945D3B0E94633BBCCF8AEA0E94993BAC
:1075F0001B821A8280E38C8387E08983809100015B
:107600008D831E821F82CE0101960E944C3C80E039
:107610000E945D3B0E946B3B6E960FB6F894DEBFF6
:107620000FBECDBFDF91CF911F910F91FF90EF90D3
:10763000DF90CF90BF90AF909F908F907F906F9092
:107640005F904F900895F8948EE284B985E085B9F3
:107650008FE287B980E188B91AB88BEF8BB984B70C
:10766000877F84BFE0E6F0E08081877F8083089594
:1076700086B18295817091E0892708950E94233B0D
:107680000E940A390E940E3980E090E0089585B783
:10769000982F916095BF826085BF089581E090E04A
:1076A0000C94FD3E1CBC1DBC85B7982F916095BF06
:1076B0008D7F85BFE0E0F0E00994811102C045981C
:1076C0000895459A089585B7982F916095BF8D7F4D
:1076D00085BF0000FECF85B7982F916095BF8D7F45
:1076E00085BF28E088E190E00FB6F894A8958093D4
:1076F00060000FBE209360000000FECFCF93DF93A9
:107700000E94383BD82FC0E08FE39CE90197F1F746
:1077100000C000000E94383BD813F5CFCF5FC330C4
:1077200098F38D2FDF91CF91089580E090E00C9435
:10773000FD3E682F80E090E00C94053F803140F4DE
:10774000EFE0F0E0E81BF109EF5FFE4F8081089564
:1077500080E008951F93CF93DF939695982F882705
:1077600097958795CFB7F894F999FECF23E0FC0160
:1077700020935700E89507B600FCFDCF20E030E0ED
:10778000D1E0DB01A20FB31F1C91F901E80FF91F33
:1077900011964C9150E0542F4427410F511D0A017E
:1077A000D0935700E89511242E5F3F4F20383105C4
:1077B00041F725E0FC0120935700E89507B600FC4F
:1077C000FDCF81E180935700E895CFBFDF91CF9146
:1077D0001F910895FC018491089584E00E940B3D5F
:1077E00088E690E70C947C3E0F931F93CF93DF9332
:1077F000CDB7DEB72E970FB6F894DEBF0FBECDBF64
:107800008C010097E9F10E947C3D8823C9F1CE01EB
:1078100001960E94833D882399F149815A816B81A9
:107820007C81CB019170F8019283818353834483DF
:10783000DB01CA0129E1B695A795979587952A9509
:10784000D1F7817085833AE176956795579547958D
:107850003A95D1F7477040832E812683211102C0CB
:1078600081E00FC0FE01379680E090E08217C0F7FC
:107870003191D801A80FB91F17963C930196F6CF06
:1078800080E02E960FB6F894DEBF0FBECDBFDF911D
:10789000CF911F910F910895FF920F931F93CF9354
:1078A000DF93CDB7DEB72E970FB6F894DEBF0FBECD
:1078B000CDBFFC01009709F452C0F68088E08F1517
:1078C00008F44DC0408150E060E070E0AAE1440F50
:1078D000551F661F771FAA95D1F70581112707FD50
:1078E0001095212F312FB9E1000F111F221F331FD7
:1078F000BA95D1F7402B512B622B732B8481482BE7
:107900000181128120E030E0980111270027402BEF
:10791000512B622B732B8381582B49835A836B83A2
:107920007C838D818E7F82608D83FE82F11005C005
:10793000CE0101960E94253E13C0AE01495F5F4F04
:1079400080E090E09F01280F391FD90117962C91F4
:10795000DA012D93AD0101968F15A0F3E9CF80E0F8
:107960002E960FB6F894DEBF0FBECDBFDF91CF913C
:107970001F910F91FF9008951F93CF93DF931F9254
:10798000CDB7DEB7182F2A9882E069830E94F73EB0
:10799000812F0E94F73E6981862F0E94F73E2A9A26
:1079A0000F90DF91CF911F910895CF93C82F2A9800
:1079B00083E00E94F73E8C2F0E94F73E8FEF0E94DB
:1079C000F73E2A9ACF9108951F93CF93DF9300D06B
:1079D000CDB7DEB7182F2A9885E04A8369830E94C5
:1079E000F73E812F0E94F73E6981862F0E94F73E65
:1079F0004A81842F0E94F73E2A9A0F900F90DF91C0
:107A0000CF911F9108952A980E94F73E8FEF0E9410
:107A1000F73E2A9A0895EF92FF920F931F93CF9308
:107A2000DF93082F883010F080E05FC02A9A229AF6
:107A30002D982B982C98259A239A24980E94F23EF0
:107A40002A9880EC0E94F73E8FE99FE00197F1F7BA
:107A500000C000002A9A8FE39CE90197F1F700C06B
:107A600000002A9882E00E94F73E88E20E94F73EDA
:107A700010E0E801CC0FDD1FC00FD11FE12CF12C6D
:107A8000C857DF48FE01EE0DFF1D84910E94F73EAE
:107A90009FEFE91AF90A83E0E816F10499F783E009
:107AA0000E94F73E2A9A60E08DE00E94BC3C52980A
:107AB0005A9A60E08CE00E94BC3C89E20E94D53C6E
:107AC000D82FF801EE0FFF1FE00FF11FE757FF4817
:107AD000C49160E08FE00E94BC3CDC13A5CF8EE037
:107AE0000E94D53C807ED9F781E0DF91CF911F9134
:107AF0000F91FF90EF90089589B182FB882780F95C
:107B000091E089270895DF92EF92FF920F931F93E0
:107B1000CF93DF93EC0180EB0E94033DF82E80743D
:107B2000E82EF6FC04C0F7FE36C084E901C080E907
:107B30002A980E94F73ECE010E94D43D9C8180FB92
:107B400091F99C838FEF0E94F73EF3FA222720F9E8
:107B50009C8120FB90F99C838F70D82E8D8300E050
:107B600010E00D1550F48FEF0E94F73EFE01E00F7C
:107B7000F11F86830F5F1F4FF4CF2A9A40E0EE205B
:107B800011F061E001C062E08CE20E94E43C8F2DC4
:107B90008770E82EE3948E2DDF91CF911F910F9186
:107BA000FF90EF90DF9008951F93CF93DF93EC0148
:107BB0008FEF0E94F73E182F8FEF0E94F73E982F0D
:107BC000212F30E0887093FF21C08FEF8EBD55E0EC
:107BD000220F331F5A95E1F73B832A830DB407FE2A
:107BE000FDCF8EB589838FEF8EBD892F83702A815B
:107BF000822B9695969596959C71892B8A830DB4C8
:107C000007FEFDCF8EB5888381E01BC04FEF4EBDD0
:107C10001B821A8243E0220F331F4A95E1F7398312
:107C200028830DB407FEFDCF2EB52FEF2EBD929504
:107C3000969597702881292B28830DB407FEFDCFD8
:107C40009EB5DF91CF911F910895EF92FF920F9310
:107C50001F93CF93DF93EC0180EA0E94033D82FFE4
:107C600007C084FF07C086FD3FC094E0F92E04C022
:107C7000F12C02C082E0F82E2A988F2D80640E9499
:107C8000F73E6C8166956170CE010E94B73EED8033
:107C90008E2D8F70E82E8C8180FF05C08E2D806424
:107CA0000E94F73E10C08E2D0E94F73E00E010E0CB
:107CB0000E1548F4FE01E00FF11F86810E94F73E89
:107CC0000F5F1F4FF5CF2A9A85E08A95F1F70000E4
:107CD0002A98F11002C0FF24F3948F2D80680E942F
:107CE000F73E2A9A8F2D01C080E0DF91CF911F913E
:107CF0000F91FF90EF9008950F931F93CF93DF9311
:107D0000EC0140E860EE8FE00E94E43C8EE00E94CF
:107D1000D53C807E8038D1F764E080E60E94BC3C90
:107D200060E080E70E94BC3C10E02A9882E00E945C
:107D3000F73E812F0E94F73E00E0103211F4083028
:107D400048F42196FE01319784910E94F73E0F5F1F
:107D50000C3099F72A9A105F103339F740E060EE43
:107D60008FE0DF91CF911F910F910C94E43CCF9362
:107D7000DF93EC016623E1F08A819B8135E09695E3
:107D800087953A95E1F78EBD2A8138E0239FC0019F
:107D90001124807E88602370822B0DB407FEFDCFF6
:107DA0009EB50E94F73E89810E94F73E888116C0E9
:107DB0008881998123E0969587952A95E1F78EBD74
:107DC00088818295880F807E0DB407FEFDCF9EB519
:107DD0000E94F73E80E00E94F73E80E0DF91CF9165
:107DE0000C94F73E81E58CBD81E08DBD08958EBD7C
:107DF0000DB407FEFDCF8EB50895F999FECF92BD63
:107E000081BDF89A992780B50895262FF999FECF5C
:107E10001FBA92BD81BD20BD0FB6F894FA9AF99AA7
:0A7E20000FBE01960895F894FFCFFD
:107E2A00FE0000000000000000000000000000004A
:027E3A00010045
:040000030000700089
:00000001FF
