:107000000C9434380C9449380C9449380C94493811
:107010000C9449380C9449380C9449380C944938EC
:107020000C9449380C9449380C9449380C944938DC
:107030000C9449380C9449380C9449380C944938CC
:107040000C9449380C9449380C9449380C944938BC
:107050000C9449380C9449380C9449380C944938AC
:107060000C9449380C94493811241FBECFEFD8E056
:10707000DEBFCDBF84B78EBB14BE88E10FB6F894D7
:1070800080936000109260000FBE0E9481380C94C3
:1070900097380C940038F8948EE284B985E085B96D
:1070A0008FE287B980E188B91AB88BEF8BB984B7C2
:1070B000877F84BFE0E6F0E08081877F808308954A
:1070C00030E080E020E021110AC04598313021F401
:1070D0008F5F8F3F21F40FC08150813079F0821390
:1070E00001C0459A90E045E34A95F1F700002F5F13
:1070F000992349F3089591E030E0F5CF90E031E035
:10710000F2CF0E944B3885B7982F916095BF82606F
:1071100085BF0E94603885B7982F916095BF8D7F9D
:1071200085BFE0E0F0E0099580E090E00895F894F4
:02713000FFCF8F
:040000030000700089
:00000001FF
