:107000000C9450380C947B380C947B380C947B385F
:107010000C947B380C947B380C947B380C947B3824
:107020000C947B380C947B380C947B380C947B3814
:107030000C947B380C947B380C947B380C947B3804
:107040000C947B380C947B380C947B380C947B38F4
:107050000C947B380C947B380C947B380C947B38E4
:107060000C947B380C947B3800080000000800006A
:1070700000080000000800000008000000080000F0
:10708000000800000008000004B6E704B6D304B608
:10709000C704B6C302900703AC8103AC8002900022
:1070A00011241FBECFEFD8E0DEBFCDBF84B78EBBAB
:1070B00014BE0FB6F894A895809160008861809303
:1070C0006000109260000FBE11E0A0E0B1E0E4E3C8
:1070D000FEE702C005900D92A231B107D9F721E079
:1070E000A2E1B1E001C01D92A239B207E1F70E940E
:1070F0005E3B0C94183F0C94003820E0FB01E20F3B
:10710000F11D3081932738E0FC01EE0FFF1F97FF40
:1071100006C0CF01A1E28A27A0E19A2701C0CF01D2
:10712000315091F72F5FE22FF0E0E417F50730F3CD
:1071300008958FEF9FEF08950C947D380895AB016B
:10714000BC018FEF9FEF0C947D38CF93DF93CDB7C9
:10715000DEB72F970FB6F894DEBF0FBECDBF1B82F0
:107160001A8283E38C8387E08983809100018D8379
:107170001E821F82CE0101960E94713C2F960FB68F
:10718000F894DEBF0FBECDBFDF91CF910895CF93AE
:10719000DF93CDB7DEB72F970FB6F894DEBF0FBEE3
:1071A000CDBF1B821A8295E19C8397E099839091D1
:1071B00000019D831E8295E09F83888779876A8777
:1071C0005B874C87CE0101960E94713C2F960FB6CB
:1071D000F894DEBF0FBECDBFDF91CF910895CF935E
:1071E000DF93CDB7DEB72F970FB6F894DEBF0FBE93
:1071F000CDBF1B821A8281E38C8387E089838091D3
:1072000000018D831E821F82CE0101960E94713C77
:107210002F960FB6F894DEBF0FBECDBFDF91CF9192
:107220000895CF93DF93CDB7DEB72F970FB6F894BD
:10723000DEBF0FBECDBF1B821A8222E12C8327E066
:107240002983209100012D831E8225E02F8323E0D6
:10725000288799878A877B876C87CE0101960E9451
:10726000713C2F960FB6F894DEBF0FBECDBFDF91F5
:10727000CF9108950E94673B0C940E3C2F923F9251
:107280004F925F926F927F928F929F92AF92BF9236
:10729000CF92DF92EF92FF920F931F93CF93DF93E2
:1072A000CDB7DEB7A2970FB6F894DEBF0FBECDBF45
:1072B0000E949D3B882311F011E011C00E94B43B55
:1072C0008A3A19F40E94723BC5C18B3BA9F78AEA3E
:1072D0000E94B83B0E946E3B8093000110E081E069
:1072E0000E947D3B113009F05CC01B821A8282E053
:1072F0008C831982809100018D831E821F83888771
:10730000CE0101960E94713C6EE0F62E07E0CE01A0
:1073100040960E94153C8130D1F789899A89892B42
:10732000B1F78B89833019F08C3061F0F0CF9C89F4
:10733000809100019813EBCF80E00E947D3B0E947A
:10734000833BE5CF9F89809100019813E0CF8FE0C8
:107350000E94BD3B998D8913DACF8CE00E94BD3B22
:107360009A8D8913D4CF8AE00E94BD3B9B8D8913EF
:10737000CECF88E00E94BD3B9C8D8913C8CF888DFD
:10738000882379F01B821A82FC8209838091000194
:107390008D831E821F831886CE0101960E94713C48
:1073A000B6CF1B821A828DE08C8387E0898380911F
:1073B00000018D831E8288E08F83188619861A86C5
:1073C00080E88B871C861D861E8680EE8F87CE0107
:1073D00001960E94713C33243394912C412C512C02
:1073E0003201C12CD12C760147E0842E52E3252EA8
:1073F000CE0140960E94153C8130D1F789899A8947
:10740000892BB1F78B898031C1F130F4883009F4D0
:1074100012C18F3041F0ECCF833109F47AC086314C
:1074200009F4B2C0E5CF2E898CEF820F833098F437
:107430006F89788D898D9A8D0E94FB3E6B017C014E
:10744000243019F08B8D811106C020EEC216D104B4
:10745000E104F10418F00E94A538CACF1B821A82F9
:107460002C828982809100018D831E821F82CE0131
:1074700001960E94713C912CBBCF8E89883049F4D3
:10748000892D90E08937910524F4DE01579680E03C
:107490000CC0C701B60137E0660F771F881F991F20
:1074A0003A95D1F70E941139A3CFE82FE90D883022
:1074B00039F09D91F0E0EE5EFE4F90838F5FF5CF47
:1074C00038E0930E97FE94CF60E870E082E191E09F
:1074D0000E949F381B821A8241E14C83898220914D
:1074E00000012D831E8256E05F8398878987D7012C
:1074F000C60127E0880F991FAA1FBB1F2A95D1F745
:10750000BA87AB879C878D87CE0101960E94713C1C
:107510006FCF8E89843021F0B701A60183E010C0BF
:107520006F89788D898D9A8D0E94FB3E2B013C01DD
:107530006C157D058E059F0531F0B701A60182E02F
:107540000E94C73855CF332019F08BEB0E94B83B0F
:1075500062E171E0C6010E94C93B1B821A8284E18C
:107560008C838982809100018D831E8224E02F8389
:10757000F886E986DA86CB86CE0101960E94713CB8
:1075800073016201312C34CF8E898230F1F50E9473
:1075900099385C01D301C2010196A11DB11D9C0166
:1075A000AD0187E0220F331F441F551F8A95D1F785
:1075B0002F8F38A349A35AA300E010E0C801A0E030
:1075C000B0E02F8D38A149A15AA182179307A407D3
:1075D000B50780F4C8010E940B3C898341E050E06C
:1075E000BE016F5F7F4FC5010E949C385C010F5F39
:1075F0001F4FE4CFC5010E949E382F89388D322756
:10760000232732278217930719F00E94EF38F0CE14
:107610008AEA0E94B83B1B821A8280E38C8387E04F
:107620008983809100018D831E821F82CE01019685
:107630000E94713C0AC08E898150833008F0D8CEF8
:107640009F89809100019813D3CE80E00E947D3BFA
:107650000E948B3BA2960FB6F894DEBF0FBECDBF43
:10766000DF91CF911F910F91FF90EF90DF90CF901E
:10767000BF90AF909F908F907F906F905F904F9052
:107680003F902F900895F8948EE284B987E085B9F1
:107690008FE287B980E188B91AB88BEF8BB984B7CC
:1076A000877F84BFE0E6F0E08081877F8083089554
:1076B00086B18295817091E0892708950E94433BAD
:1076C0000E943A390E943E3980E090E0089585B7E3
:1076D000982F916095BF826085BF089581E090E00A
:1076E0000C94023F1CBC1DBC85B7982F916095BFC0
:1076F0008D7F85BFE0E0F0E00994811102C04598DC
:107700000895459A089585B7982F916095BF8D7F0C
:1077100085BF0000FECF85B7982F916095BF8D7F04
:1077200085BF98E088E10FB6F894A8958093600033
:107730000FBE909360000000FECFCF93DF930E94B6
:10774000583BD82FC0E08FE39CE90197F1F700C0C8
:1077500000000E94583BD813F5CFCF5FC33098F399
:107760008D2FDF91CF91089580E090E00C94023F3F
:10777000682F80E090E00C940A3F803140F4EFE005
:10778000F0E0E81BF109EF5FFE4F8081089580E093
:1077900008951F93CF93DF939695982F88279795F9
:1077A00087954FB7F894F999FECF23E0FC01209319
:1077B0005700E89507B600FCFDCFEB01C058DF4F3E
:1077C000DB0151E0BC016A1B7B0B1C91FB01EA0F42
:1077D000FB1F11962C91119730E0322F2227210F99
:1077E000311D090150935700E89511241296CA17CC
:1077F000DB0759F725E0FC0120935700E89507B611
:1078000000FCFDCF81E180935700E8954FBFDF91E9
:10781000CF911F910895FC018491089584E00E9406
:10782000173D88E690E70C94793EEF92FF920F9314
:107830001F93CF93DF93CDB7DEB72E970FB6F89493
:10784000DEBF0FBECDBF0097F1F18C010E94863DD7
:107850008823C9F1CE0101967C010E948D3D8823C9
:1078600091F189819A81AB81BC819D013170F801D0
:107870003283218393838483AC01BD0129E1769512
:107880006795579547952A95D1F7417045833AE119
:10789000B695A795979587953A95D1F78770808388
:1078A0008E818683811102C081E00EC0F801379677
:1078B000D7019A2F9E199817B8F716969C9116978C
:1078C00091931196F6CF80E02E960FB6F894DEBF16
:1078D0000FBECDBFDF91CF911F910F91FF90EF9021
:1078E0000895CF93DF93CDB7DEB72E970FB6F894F8
:1078F000DEBF0FBECDBFFC01892B09F44DC0268130
:10790000293008F049C0808190E0A0E0B0E0AC01EF
:10791000BD018AE1440F551F661F771F8A95D1F775
:107920009581892F990F990BAA0BBB0B39E1880F11
:10793000991FAA1FBB1F3A95D1F7842B952BA62B15
:10794000B72B3481832B4181528160E070E0BA0112
:1079500055274427842B952BA62BB72B3381932BAC
:1079600089839A83AB83BC838D818E7F82608D8374
:107970002E83CE010196211103C00E94283E0DC026
:107980003796DC01319116963C93169711963A2F53
:10799000381B3217B8F3F1CF80E02E960FB6F8946B
:1079A000DEBF0FBECDBFDF91CF910895CF93DF93A0
:1079B000D82FC62F2A9882E00E94F53E8D2F0E9474
:1079C000F53E8C2F0E94F53E2A9ADF91CF910895C3
:1079D000CF93C82F2A9883E00E94F53E8C2F0E94F7
:1079E000F53E8FEF0E94F53E2A9ACF9108951F939E
:1079F000CF93DF93182FD62FC42F2A9885E00E94AB
:107A0000F53E812F0E94F53E8D2F0E94F53E8C2F72
:107A10000E94F53E2A9ADF91CF911F9108952A98EE
:107A20000E94F53E8FEF0E94F53E2A9A0895EF924C
:107A3000FF920F931F93CF93DF93883010F080E075
:107A40005EC0C82F2A9A229A2D982B982C98259A96
:107A5000239A24980E94F03E2A9880EC0E94F53EDA
:107A60008FE99FE00197F1F700C000002A9A8FE3A9
:107A70009CE90197F1F700C000002A9882E00E947B
:107A8000F53E88E20E94F53ED0E07E01EE0CFF1C40
:107A9000EC0EFD1E00E010E0F801EE0DFF1DE857B2
:107AA000FF4884910E94F53E0F5F1F4F0330110580
:107AB00099F783E00E94F53E2A9A60E08DE00E94EB
:107AC000D63C52985A9A60E08CE00E94D63C89E2FB
:107AD0000E94E83C182FFE01EE0FFF1FEC0FFD1F68
:107AE000E757FF48C49160E08FE00E94D63C1C132A
:107AF000A6CF8EE00E94E83C807ED9F781E0DF913E
:107B0000CF911F910F91FF90EF90089589B182FB63
:107B1000882780F991E089270895EF92FF920F93CB
:107B20001F93CF93DF93EC0180EB0E940F3D182F42
:107B3000082F007486FD04C087FF31C084E901C0AE
:107B400080E92A980E94F53ECE010E94D73D9C8193
:107B500080FB91F99C838FEF0E94F53E13FB9927E0
:107B600090F92C8190FB20F92C838F70E82E8D8367
:107B70002696F12CFE1431F08FEF0E94F53E89938A
:107B8000F394F8CF2A9A40E0002311F061E001C09D
:107B900062E08CE20E94F73C177001E0010F802F39
:107BA000DF91CF911F910F91FF90EF9008951F9358
:107BB000CF93DF93EC018FEF0E94F53E182F8FEFEC
:107BC0000E94F53E212F30E0482F48709FEF9EBD68
:107BD00083FF1FC045E0220F331F4A95E1F73B8327
:107BE0002A830DB407FEFDCF9EB599839FEF9EBDFE
:107BF000282F23709A81922B8695869586958C7175
:107C0000892B8A830DB407FEFDCF8EB5888341E0B2
:107C10001AC01B821A8293E0220F331F9A95E1F754
:107C2000398328830DB407FEFDCF9EB59FEF9EBD1F
:107C3000982F9295969597708881982B98830DB47C
:107C400007FEFDCF8EB5842FDF91CF911F91089550
:107C5000FF920F931F93CF93DF938C0180EA0E94D2
:107C60000F3D82FF06C084FF06C086FD3BC0C4E016
:107C700003C0C0E001C0C2E02A988C2F80640E943B
:107C8000F53EF801648166956170C8010E94B53EB9
:107C9000F801D581DF70848180FF05C08D2F80645D
:107CA0000E94F53E0FC08D2F0E94F53E0A5F1F4FC8
:107CB000F12CFD1639F0F80181918F010E94F53EFB
:107CC000F394F7CF2A9AF5E0FA95F1F700002A9895
:107CD000C11101C0C1E08C2F80680E94F53E2A9A34
:107CE0008C2F01C080E0DF91CF911F910F91FF9009
:107CF00008950F931F93CF93DF938C0140E860EEBC
:107D00008FE00E94F73C8EE00E94E83C807E803845
:107D1000D1F764E080E60E94D63C60E080E70E94F4
:107D2000D63CC0E02A9882E00E94F53E8C2F0E944B
:107D3000F53ED0E0C03211F4D83050F40F5F1F4F41
:107D4000F801319784910E94F53EDF5FDC3091F7B6
:107D50002A9AC05FC03331F740E060EE8FE0DF91D8
:107D6000CF911F910F910C94F73CCF93DF93EC01CF
:107D70006623E1F08A819B8135E0969587953A9557
:107D8000E1F78EBD8A8198E0899F90011124207EC1
:107D900083702860822B0DB407FEFDCF9EB50E9434
:107DA000F53E89810E94F53E888116C088819981BF
:107DB00023E0969587952A95E1F78EBD8881829577
:107DC000880F807E0DB407FEFDCF9EB50E94F53E64
:107DD00080E00E94F53E80E0DF91CF910C94F53E6B
:107DE00081E58CBD81E08DBD08958EBD0DB407FE8B
:107DF000FDCF8EB5089569279627692778278727AD
:107E000078270895F999FECF92BD81BDF89A9927F8
:107E100080B50895262FF999FECF1FBA92BD81BD76
:107E200020BD0FB6F894FA9AF99A0FBE01960895FC
:047E3000F894FFCFF4
:107E3400FE00000000000000000000000000000040
:027E4400FE003E
:040000030000700089
:00000001FF
