:107000000C9434380C944C380C944C380C944C3808
:107010000C944C380C944C380C944C380C944C38E0
:107020000C944C380C944C380C944C380C944C38D0
:107030000C944C380C944C380C944C380C944C38C0
:107040000C944C380C944C380C944C380C944C38B0
:107050000C944C380C944C380C944C380C944C38A0
:107060000C944C380C944C3811241FBECFEFD8E050
:10707000DEBFCDBF84B78EBB14BE0FB6F894A89503
:1070800080916000886180936000109260000FBE64
:107090000E9487380C9492380C940038F8948EE251
:1070A00084B987E085B98FE287B980E188B91AB8D9
:1070B0008BEF8BB984B7877F84BFE0E6F0E08081F7
:1070C000877F8083089520E080E090E091110AC0DE
:1070D0004598213021F48F5F8F3F21F413C08150F8
:1070E000813049F0981301C0459A35E33A95F1F79C
:1070F00000009F5FEBCF95E39A95F1F7000091E0D8
:1071000021E0F0CF35E33A95F1F7000008950E94B1
:107110004E3885B7982F916095BF826085BF0E94D9
:087120006338FDCFF894FFCFA6
:040000030000700089
:00000001FF
